:020000040800F2
:10000000B865002025020008F5520008D14000081C
:10001000AD4E00083B1200082D64000800000000EF
:10002000000000000000000000000000C15A0008AD
:100030007D120008000000003D580008C35A000867
:100040003F0200083F0200083F0200083F0200088C
:100050003F0200083F0200083F0200083F0200087C
:100060003F0200083F0200083F0200083F0200086C
:100070003F0200083F0200083F0200083F0200085C
:100080003F020008411200083F0200083F0200083A
:100090003F0200083F0200083F0200083F0200083C
:1000A0003F020008315B00083F0200083F020008E1
:1000B0003F0200083F0200083F0200083F0200081C
:1000C0003F0200083F0200083F0200083F0200080C
:1000D0003F0200083F0200081D6400083F020008BC
:1000E0003F0200083F0200083F0200083F020008EC
:1000F0003F0200083F0200083F0200083F020008DC
:100100003F0200083F0200083F0200083F020008CB
:100110003F0200083F0200083F0200083F020008BB
:100120003F0200083F0200083F0200083F020008AB
:1001300000F002F800F067F80AA090E8000C824492
:100140008344AAF10107DA4501D100F05CF8AFF26F
:10015000090EBAE80F0013F0010F18BFFB1A43F0A5
:1001600001031847008D0000208D00000A444FF065
:10017000000C10F8013B13F0070408BF10F8014B06
:100180001D1108BF10F8015B641E05D010F8016B4B
:10019000641E01F8016BF9D113F0080F1EBF10F8AF
:1001A000014BAD1C0C1B09D16D1E58BF01F801CBD2
:1001B000FAD505E014F8016B01F8016B6D1EF9D555
:1001C0009142D6D37047000000230024002500266A
:1001D000103A28BF78C1FBD8520728BF30C148BFAA
:1001E0000B607047662908F07E84002070471FB5B9
:1001F00000F0E2FA04000020002107F0AFFBE0600D
:100200001FBD10B510BD00F0DBFB1146FFF7EFFF7F
:1002100007F02AFA00F0F9FB03B4FFF7F2FF03BC82
:1002200000F03CFC0948804709480047FEE7FEE72C
:10023000FEE7FEE7FEE7FEE7FEE7FEE7FEE7FEE796
:1002400004480549054A064B704700002D5B00082D
:1002500031010008B8050020B8650020B82500204D
:10026000B82500200FB41CB5074B06AA7B4469468D
:100270000090059800F087FA0020694600F096FA91
:100280001CBC5DF814FB00003D0500002DE9F041A9
:100290000E460446002020622046E168884730B3BD
:1002A000252805D0D4E901219047206A401CF2E7B7
:1002B000E168204600278847050018D0A5F14100D5
:1002C000192802D820354FF40067324629462046C7
:1002D0002760FFF787FF40B1012804D0F61D26F004
:1002E00007060836D8E7361DD6E72846DAE7206A3B
:1002F000BDE8F0814FF0000200B5134694469646E3
:10030000203922BFA0E80C50A0E80C50B1F1200128
:10031000BFF4F7AF090728BFA0E80C5048BF0CC0D6
:100320005DF804EB890028BF40F8042B08BF704734
:1003300048BF20F8022B11F0804F18BF00F8012BA6
:10034000704770477047704710B500F039FA006881
:1003500010BD10B5044600F033FA046010BD7047BC
:100360002DE9FF4F0C461E464FF0FF378BB0D2E908
:100370000001DDF860800A908A46C1F30A5505B98C
:100380003D46002108464FF00000BAF1000F00F48E
:10039000400005DA00EB80004FF4400101EA500014
:1003A0004FEA9059B9F1010F00DDB9460A9850EAB9
:1003B0004A000ED044F61050A5F2FF3545432F14E5
:1003C000B8F1000F1ED07542291E1EDDC9F10002D2
:1003D0001CE0B8F1010F4FF0000001D0302103E024
:1003E000F24305E02154401CB042FBDB30460022C2
:1003F000002121540B99C1F80880C1E900200FB0F9
:10040000BDE8F08FBD1B6D1CDEE74A4600DA69428D
:1004100006A800F05FFA06AB93E8070003AB83E899
:10042000070050460A9900F040FB8DE80700A0F550
:1004300000501F3800900398002D0ADD42F21F0182
:100440004A460844002303A90390684600F0A9FD2A
:1004500009E0A0F500504A461F38002303A9039085
:10046000684600F0B3FD8DE807000004000C03D0DF
:100470004FF0FF30410800E01046B8F1000F03D004
:100480000022009215461EE0751E05D400F09CF96E
:10049000303262556D1EF9D5B3460122084302D0B1
:1004A00000227F1C04E02078302801D100227F1E2A
:1004B000002A099784D01DE0112D07DA00F084F995
:1004C000303262556D1C50EA0102F5D1084302D06A
:1004D0000098C8B10EE00021681E05E0235C625C54
:1004E00063542254401E491C8142F7DBAB46A81BD3
:1004F000401E0990002004F80B000B98099AC0F8E0
:100500000880C0E9002B7AE711264FF0000857E772
:100510002DE9F04F88460446D21D22F0070191B024
:10052000D1E90001CDE90A0106F0A4F902460B98D1
:10053000C00F01D02D2007E02068810701D52B20B6
:1005400002E0202101EAC000032A099001D0072A15
:1005500005DB03464146204600F07CF90BE120789C
:10056000800601D5E06900E00620B8F1650F8146FC
:1005700006D0B8F1660F18D0B8F1670F70D131E02E
:100580000020B9F1110F009001DB112301E009F106
:1005900001030AAA01A90CA8FFF7E2FEDDE90C702D
:1005A000002609F10105834647E001204B460090F3
:1005B0004FF000470AAA01A90CA8FFF7D1FEDDE918
:1005C0000DB00C995D46002610B909F101000D1817
:1005D000B9EB050003D4C0F1FF3609F10105A5EB25
:1005E00009002BE0B9F1010F01DA4FF001090020F9
:1005F000B9F1110F0090484601DD112300E00346D8
:100600000AAA01A90CA8FFF7ABFEDDE90C704D4664
:1006100000268346207800070AD4AB4500DA5D4601
:1006200001A8012D04DD411911F8011C302907D062
:100630004F4502DA17F1040F04DA012082460FE079
:100640006D1EEEE7002F02DCED1B3E4403E0781C3C
:10065000A84200DD7D1CB81B00F1010A4FF00047E5
:100660002078000703D4AA4501DB4FF0FF3A0021B0
:10067000B7F1004F0DF143088DF8431024D002204C
:100680002B23002F01DA7F422D230A21021EA0F125
:10069000010000DC5FB197FBF1FC97FBF1F201FB7D
:1006A0001C7C17460CF1300C08F801CDEEE7A8F1E0
:1006B000010003702188090501D5452100E065216D
:1006C000A0F1010800F8011C09980FA9A1EB080787
:1006D000FF1D00B10120411901EBEA70A169384406
:1006E000081A401EA0612078C00602D42046AFF34D
:1006F0000080099828B1D4E901219047206A401C64
:1007000020622078C00622D52046AFF300801EE08C
:10071000002E04DBB34502DD01A8805D00E030203F
:10072000D4E901219047206A401C2062761CAAF17E
:1007300001005FEA000A0AD100F03EF8C0680168D3
:10074000405CD4E901219047206A401C2062281EA9
:10075000A5F10105DCDC07E0D4E9012118F8010B63
:100760009047206A401C2062381EA7F10107F3DC85
:100770002046AFF30080032011B041E601694A1C16
:1007800002610878704700B58FB0CDE901310021D2
:10079000059105497944CDE9031011466846FFF7F4
:1007A00075FD0FB000BD0000E5FFFFFF0A6802F80D
:1007B000010B0A6070470000004870477805002070
:1007C000004870475805002030B5B0F10A024FEAE2
:1007D000900E71F100034EEA817EB0EB0E0061EBEA
:1007E00091014FEA101E4EEA017E10EB0E0041EB24
:1007F00011114FEA102E4EEA016E10EB0E0041EB84
:1008000011214FEA104E4EEA014E10EB0E0041EB63
:100810001141401841F100014FEAD00040EA417017
:100820004FEAD10110EB80054FEA810444EA90744D
:1008300044EB01046D1944EB0404521BA3414FF037
:10084000000348BF0A3200D530BD401C41F1000111
:1008500030BD00002DE9F0411F4604460326016823
:10086000072A01F4006004DB08B116A505E016A50F
:1008700003E008B115A500E015A521F010002060E7
:10088000A069C01EA0610FB1401EA0612046AFF359
:1008900000804FB1D4E9012138469047206A401CBE
:1008A0002062C01C206206E0206AFAE7D4E9012138
:1008B00015F8010B9047761EF8D22046AFF3008062
:1008C000BDE8F0814E414E006E616E00494E46001B
:1008D000696E66002DE9F047814616468AB03548B4
:1008E00078440DC88DE80D0032487844801C03AC74
:1008F0000DC884E80D0041F69B300844372190FB79
:10090000F1F290FBF1F5A5F1800501FB12041B3C0F
:1009100002D56442012000E00020DFF898A0804664
:100920000027FA44AAF1BE0A0EE0E0070AD03246D8
:10093000684607EB470101230AEB810100F046FB03
:100940008DE8070064107F1C002CEED1194F7F4406
:10095000AE3F19E0E80715D007EB04100DF1180AB7
:1009600090E80E008AE80E00C068F04201D19819A4
:1009700008903246012306A903A800F027FB03AB29
:1009800083E807006D10641C002DE3D14FF00103D4
:1009900032466946B8F1000F03A802D000F001FB0F
:1009A00001E000F013FBC9E90001C9F808200AB012
:1009B000BDE8F087688500000048704758050020B2
:1009C0007546FFF7F9FFAE4605006946534620F02D
:1009D0000700854618B020B5FFF732FCBDE820407F
:1009E0004FF000064FF000074FF000084FF0000BEB
:1009F00021F00701AC46ACE8C009ACE8C009ACE89E
:100A0000C009ACE8C0098D46704710B50446AFF385
:100A100000802046BDE81040FFF7FEBB4FF0013CD0
:100A200050F8042B51F8043B9A4221D1A2EB0C035D
:100A3000934313EACC1317D150F8042B51F8043B1D
:100A40009A4215D1A2EB0C03934313EACC130BD1BA
:100A500050F8042B51F8043B9A4209D1A2EB0C0345
:100A6000934313EACC13DBD04FF00000704700BF74
:100A7000D01A01BAB1FA81F101F0180122FA01F09D
:100A8000CB40C1F12001DBB2C0B2C01A2CFA01F395
:100A9000D11A914311EAC311E6D1704701491820D8
:100AA000ABBEFEE72600020070475FEA400C08BFBD
:100AB00091F0000F4FEA8C234FEAC12243EA5151D3
:100AC0004FEA1C5018BF00F5F0404FEA300018BF45
:100AD00041F000415FEA6C5C00F02980BCF1FF3F0F
:100AE00008BF40F080407047130C06BF12044FF05F
:100AF000100C4FF0000C130E04BF12020CF1080C86
:100B0000130F04BF12010CF1040C930F04BF9200E9
:100B10000CF1020CD30F04BF52000CF1010C114672
:100B20004FF00002A0F11F00A0EB0C00704711F085
:100B3000004F08BF704731F000413FF4D5AF0B0CB8
:100B400006BF09044FF0100C4FF0000C0B0E04BF51
:100B500009020CF1080C0B0F04BF09010CF1040C85
:100B60008B0F04BF89000CF1020CCB0F04BF4900AE
:100B70000CF1010CCCF12003A0EB0C0022FA03F3E2
:100B800002FA0CF241EA030100F10100704720F083
:100B90007F4C80EA030023F07F47ACEB070303F5AB
:100BA0007C5300F0004003F1FF032DE980494FEA38
:100BB000154B09B44FEA144325EA0B4E24EA0348C7
:100BC0000FF2042606EB132749083E785FEA32024B
:100BD00003FB0667C7F5000707FB06F64FEA543725
:100BE0004FEAD64606F1020607FB066CCCF1005C24
:100BF0004FEA1C472CEA074C07FB06F40CFB06F5F2
:100C000004EB15464FEA961634BF00204FF0004023
:100C10004FEAD13706FB07FC4FEA1C4C0CFB0BF7E5
:100C2000D21B03FB0CF761EB07010CFB0EF7B0EBDB
:100C3000074072EB17420CFB08F734BFA2EB0742E8
:100C4000B2EB074261EB17414FEA0C444FEA9107C0
:100C500006FB07FC4FEA1C4C0CFB0BF7B0EBC74044
:100C600072EB573203FB0CF734BFA2EBC742B2EB77
:100C7000C74261EB57310CFB0EF7B0EBC70072EBCC
:100C800057720CFB08F734BFA2EBC702B2EBC702E6
:100C900061EB5771039F4FEA816141EA921104EBC6
:100CA000CC044FEAD1374FEA826206FB07FC42EAE6
:100CB00090124FEA80604FEA1C4C0CFB0BF7D21BE2
:100CC00003FB0CF761EB07010CFB0EF7B0EB0740E1
:100CD00072EB17420CFB08F734BFA2EB0742B2EBF2
:100CE000074261EB17414FEA8C554FEA910704EB3D
:100CF0009C2406FB07FC4FEA1C4C0CFB0BF7B0EBEB
:100D0000C74072EB573203FB0CF734BFA2EBC7426C
:100D1000B2EBC74261EB57310CFB0EF7B0EBC700EB
:100D200072EB57720CFB08F734BFA2EBC702B2EBB1
:100D3000C70261EB577115EB4C254FEA816141EA1F
:100D400092114FEA82624FEAD13742EA901206FBD3
:100D500007FC44F100044FEA80604FEA1C4C0CFB96
:100D60000BF7D21B03FB0CF761EB07010CFB0EF733
:100D7000B0EB074072EB17420CFB08F734BFA2EB55
:100D80000742B2EB074261EB174115EB1C154FEA26
:100D9000813141EA92414FEA823242EA90424FEA7F
:100DA00080304FEA0C7644F1000448EA03434EEAEF
:100DB0000B484FF0000EB2EB080C71EB030724BF99
:100DC000624639464EEB0E0E4FF0000B00185241B2
:100DD00049414BEB0B0BB2EB080C71EB03077BF1BA
:100DE000000B24BF624639464EEB0E0E4FF0000B4F
:100DF0000018524149414BEB0B0BB2EB080C71EB65
:100E000003077BF1000B24BF624639464EEB0E0E02
:100E100051EA020718BF46F0010616EB0E7655F1AF
:100E2000000254F1000103D5BDE88901BDE8008846
:100E3000BDE88901BDE80048B619524141EB010106
:100E4000A3F10103704780807F7E7D7C7B7A797877
:100E5000777676757473727171706F6E6E6D6C6C7F
:100E60006B6A6A6968686766666564646363626121
:100E70006160605F5F5E5E5D5D5C5C5B5B5A5A59A2
:100E8000595858575756565555555454535352520E
:100E90005251515050504F4F4F4E4E4D4D4D4C4C66
:100EA0004C4B4B4B4A4A4A494949484848474747AF
:100EB00047464646454545444444444343434342EC
:100EC000424242414141002B9C4630D477002BD016
:100ED0001CB54FEA370703B44FF010004FF0100174
:100EE000BAF1000F06D0BCF1000FDCBF40F00800E3
:100EF00040F008014FF000000FBCBDE810400BF1BE
:100F0000010BBBF1010F08BF5FEA170722BF12F107
:100F1000010211F101014FF0004143F1000300F023
:100F2000004043EA00007047F9D35708D0E746EA8B
:100F3000064613F1400F4FEA16461FDD13F1200F4E
:100F4000DFBF16430A46002120335B42BED0C3F107
:100F5000200746EA064602FA07F74FEA164646EA2F
:100F60000706C3F1200722FA03F201FA07F721FA74
:100F700003F14FF0000342EA0702A7E746EA020640
:100F800046EA06464FEA164646EA0106BCBF46EA6E
:100F90000646360C4FF000034FF000024FF0000100
:100FA00094E72DE9804C9A46934670B491E8380056
:100FB00007C831EA400C48BF34EA430C03D5FFF7B9
:100FC000E6FDFFF780FFF0BCBDE8008C2DE9804C0A
:100FD0009A46934670B491E8380007C810F0804FE5
:100FE00008BF13F0804F03D100F005F8FFF76BFF47
:100FF000F0BCBDE8008C20F07F4780EA030023F0BE
:101000007F4C07EB0C03A3F57C5300F00040A3F1E9
:10101000FE0392F0000F00F0B38095F0000F00F097
:1010200077802DE901494FEA11404FEA144621EA41
:10103000004800FB06FC24EA064708FB06F607FB0F
:1010400008F800FB07F718EB06484CEB164C4FEA84
:10105000124B18EB07484FEA15464CEB174022EAB3
:101060000B4E0BFB06FC25EA06470EFB06F607FBBC
:101070000EFE0BFB07F71EEB064E4CEB164C4FF02B
:1010800000061EEB074E4CEB174B18EB0B0840F11C
:10109000000018EB0E0B58EB000840F100008F1A0F
:1010A0004FF000013CBFC943661B14BFB5EB040CF5
:1010B00000213CBFC943F61B4FEA17444EEA8E0E8F
:1010C00027EA04454FEA1C4704FB07622CEA074C59
:1010D00005FB07F70CFB05F604FB0CFC16EB0746BB
:1010E00042EB174216EB0C4642EB1C421BEB06068A
:1010F00058EB0202414146EA9E0601D5BDE801894E
:10110000B619524141EB0101A3F10103BDE8018988
:101110004FEA14454FEA114724EA054621EA074CF5
:1011200005FB07F406FB07F70CFB06F105FB0CFCBF
:1011300011EB074144EB17444FEA124711EB0C4106
:1011400044EB1C4422EA074C05FB07F206FB07F7B9
:101150000CFB06F605FB0CFC16EB074642EB1742B0
:1011600016EB0C4642EB1C456A1854F1000148BFCF
:101170007047B619524141EB0101A3F101037047D9
:1011800095F0000F37D04FEA11424FEA144721EA99
:10119000024624EA074C02FB07F106FB07F70CFBAB
:1011A00006F402FB0CFC14EB074441EB17414FEA39
:1011B000154714EB0C4441EB1C4125EA074C02FB9C
:1011C00007F506FB07F70CFB06F602FB0CFC16EB1B
:1011D000074645EB174516EB0C4645EB1C4212192A
:1011E00051F1000148BF7047B619524141EB01016E
:1011F000A3F1010370474FEA14454FEA114724EA6F
:10120000054621EA074C05FB07F106FB07F70CFB37
:1012100006F24FF0000605FB0CFC12EB074241EB17
:10122000174112EB0C4251EB1C4148BF704792181A
:1012300041EB0101A3F10103704700BFFEE700008D
:1012400010B5024800F04AF910BD00003804002033
:1012500030B590F840500124AC40C56B6C60046818
:1012600063604468102C04D10468A2600468E160E3
:1012700003E00468A1600468E26030BD70470000CC
:1012800010B53C21114802F073F93C21104802F0DE
:101290006FF93C210F4802F06BF90C480068C068F8
:1012A00040F0010009490968C86009480068C06841
:1012B00040F0010006490968C86006480068C06837
:1012C00040F0010003490968C86010BD8802002091
:1012D00060030020A803002072B600BFFEE70146AD
:1012E000002291F82100022808D00420886300BF62
:1012F000002081F8200000BF0120704708680068C6
:1013000020F00E000B6818600868006820F00100EB
:101310000B68186091F8403001209840CB6B586002
:10132000012081F8210000BF002081F8200000BFCB
:101330001046E2E770B50446002594F82100022823
:1013400003D00420A0630125C1E02068006820F0DC
:101350000E00216808602068006820F00100216804
:1013600008605C492068884252D95A497839206817
:10137000884201D1012047E05649643920688842FB
:1013800001D1102040E0534950392068884201D1F2
:10139000801539E04F493C392068884201D18014DA
:1013A00032E04C4928392068884202D14FF480301D
:1013B0002AE0484914392068884202D14FF480104D
:1013C00022E044492068884201D140041CE042499F
:1013D0002068884201D1012016E03F49143120687D
:1013E000884201D110200FE03B4928312068884213
:1013F00001D1801508E038493C312068884201D18C
:10140000801401E04FF480303349091F086051E037
:10141000304978392068884201D1012047E02D49C0
:1014200064392068884201D1102040E029495039B0
:101430002068884201D1801539E026493C3920686E
:10144000884201D1801432E022492839206888423C
:1014500002D14FF480302AE01E49143920688842B6
:1014600002D14FF4801022E01A492068884201D14D
:1014700040041CE018492068884201D1012016E090
:10148000154914312068884201D110200FE012491B
:1014900028312068884201D1801508E00E493C318E
:1014A0002068884201D1801401E04FF4803009495E
:1014B00080394860012084F8210000BF002084F8B2
:1014C000200000BF606B10B12046616B8847284642
:1014D00070BD0000800002400804024070B5044660
:1014E000E06B05682068066894F840100420884086
:1014F0002840002875D006F004000028FAD02068A3
:10150000006800F0200028B92068006820F004007E
:1015100021680860D5492068884254D9D349783970
:101520002068884201D1042049E0D049643920680C
:10153000884201D1402042E0CC495039206888429D
:1015400001D100153BE0C9493C392068884202D1ED
:101550004FF4804033E0C54928392068884202D1E1
:101560004FF480202BE0C14914392068884202D111
:101570004FF4800023E0BD492068884201D1C004B7
:101580001DE0BB492068884201D1042017E0B8491A
:1015900014312068884201D1402010E0B44928313C
:1015A0002068884201D1001509E0B1493C3120682A
:1015B000884202D14FF4804001E04FF48020AC49D2
:1015C000091F086054E0A94978392068884201D190
:1015D00004204AE0A54964392068884202D14020AD
:1015E00043E04CE0A14950392068884201D1001500
:1015F0003BE09E493C392068884202D14FF480404C
:1016000033E09A4928392068884202D14FF480207B
:101610002BE0964914392068884202D14FF48000AB
:1016200023E092492068884201D1C0041DE090491E
:101630002068884201D1042017E08D4914312068C8
:10164000884201D1402010E0894928312068884231
:1016500001D1001509E086493C312068884202D159
:101660004FF4804001E04FF4802080498039486089
:10167000E06A002802D02046E16A8847F4E094F846
:101680004010022088402840002871D006F0020057
:101690000028FAD02068006800F0200040B92068D7
:1016A000006820F00A0021680860012084F8210009
:1016B0006E492068884254D96C497839206888423C
:1016C00001D1022049E0694964392068884201D18A
:1016D000202042E0654950392068884201D14015F8
:1016E0003BE062493C392068884202D14FF4005007
:1016F00033E05E4928392068884202D14FF4003037
:101700002BE05A4914392068884202D14FF4001066
:1017100023E056492068884201D180041DE05449E5
:101720002068884201D1022017E051491431206815
:10173000884201D1202010E04D492831206888429C
:1017400001D1401509E04A493C312068884202D164
:101750004FF4005001E04FF400304549091F086084
:1017600054E0424978392068884202D102204AE098
:1017700057E03E4964392068884201D1202042E088
:101780003A4950392068884201D140153BE0374939
:101790003C392068884202D14FF4005033E033498D
:1017A00028392068884202D14FF400302BE02F49BD
:1017B00014392068884202D14FF4001023E02B49ED
:1017C0002068884201D180041DE0294920688842B0
:1017D00001D1022017E0264914312068884201D146
:1017E000202010E0224928312068884201D140158C
:1017F00009E01F493C312068884202D14FF4005073
:1018000001E04FF4003019498039486000BF0020E2
:1018100084F8200000BFA06A30B32046A16A884740
:1018200022E094F84010082088402840E0B106F0FB
:101830000800C8B12068006820F00E002168086028
:1018400094F8401001208840E16B48600120A063BB
:1018500084F8210000BF002084F8200000BF206B26
:1018600010B12046216B884770BD00008000024007
:10187000080402400146002209B9012070471E4BAE
:10188000086898420BD21D4B0868C01A1423B0FB9D
:10189000F3F08000086419480838C8630AE0164B62
:1018A0000868C01A1423B0FBF3F0800008641248E3
:1018B0000838C863022081F821000868026843F6EE
:1018C000F0708243D1E901031843CB6818430B69D8
:1018D00018434B6918438B691843CB69184302437B
:1018E0000868026000208863012081F82100002040
:1018F00081F8200000BFC1E7080402400800024050
:101900002DE9F04104460D4616461F464FF00008EB
:1019100000BF94F82000012802D10220BDE8F08128
:10192000012084F8200000BF94F8210001282CD168
:10193000022084F821000020A0632068006820F0C5
:101940000100216808603B46324629462046FFF7E1
:101950007FFCE06A30B12068006840F00E0021682A
:1019600008600BE02068006820F00400216808602F
:101970002068006840F00A0021680860206800685C
:1019800040F001002168086006E000BF002084F8F4
:10199000200000BF4FF002084046BFE770B5044684
:1019A00000F0C0F906462546681C10B104480078CE
:1019B000054400BF00F0B6F9801BA842FAD370BD01
:1019C000040100202DE9F847024600239C467BE1F4
:1019D0004FF0010808FA03F4D1F8008008EA040087
:1019E000A0427DD1DFF8F4A2D1F80480A8EB0A0967
:1019F000D0453AD014DCB8F1030F50D009DCB8F16F
:101A0000000F31D0B8F1010F1CD0B8F1020F49D14D
:101A100020E0B8F1110F18D0B8F1120F42D11EE03A
:101A2000B9F5881F25D006DCB9F5803F20D0B9F57F
:101A3000801F37D11AE0B9F5001F18D0B9F5041F7F
:101A400030D117E0D1F80CC02DE0D1F80C8008F1AE
:101A5000040C28E0D1F80C8008F1080C23E0D1F840
:101A60000C8008F10C0C1EE000BF00BF00BF00BFDF
:101A700000BF00BFD1F80880B8F1000F02D14FF0CD
:101A8000040C0BE0D1F80880B8F1010F03D14FF03E
:101A9000080C146102E04FF0080C546103E04FF0B1
:101AA000000C00E000BF00BFFF2801D8904601E015
:101AB00002F104084646FF2802D84FEA830803E0F3
:101AC000A3F108084FEA88084746D6F800804FF08F
:101AD0000F0909FA07F928EA09080CFA07F900E0E2
:101AE0007AE048EA0908C6F80080D1F8048008F0D6
:101AF0008058B8F1805F6FD100BFDFF8E481D8F87B
:101B0000188048F00108DFF8D891C9F81880C84655
:101B1000D8F8188008F00108CDF8008000BF00BF99
:101B20004FEAB9384FEA930958F829504FEA8378B9
:101B30004FEA18794FF00F0808FA09F825EA080566
:101B4000DFF8A081424502D14FF0000824E0DFF821
:101B50009881424502D14FF001081DE0DFF88C81E9
:101B6000424502D14FF0020816E0DFF88481424579
:101B700002D14FF003080FE0DFF87881424502D12F
:101B80004FF0040808E0DFF87081424502D14FF0C1
:101B9000050801E04FF006084FEA83794FEA19790A
:101BA00008FA09F848EA0505DFF850814FEA930979
:101BB00048F82950D1F8048008F48018B8F5801F3F
:101BC0000BD1DFF83C81D8F8008048EA0008DFF844
:101BD0003091C9F800800AE075E0DFF82481D8F878
:101BE000008028EA0008DFF81891C9F80080D1F8D1
:101BF000048008F40018B8F5001F0ED1DFF800814A
:101C000008F10408D8F8008048EA0008DFF8F090EE
:101C100009F10409C9F800800DE0DFF8E48008F15B
:101C20000408D8F8008028EA0008DFF8D49009F109
:101C30000409C9F80080D1F8048008F40038B8F528
:101C4000003F0ED1DFF8B880A8F10408D8F8008072
:101C500048EA0008DFF8A890A9F10409C9F8008053
:101C60000DE0DFF89C80A8F10408D8F8008028EA8D
:101C70000008DFF88C90A9F10409C9F80080D1F8B8
:101C8000048008F48038B8F5803F0ED1DFF870800A
:101C9000A8F10808D8F8008048EA0008DFF860904A
:101CA000A9F10809C9F800800DE0DFF85480A8F117
:101CB0000808D8F8008028EA0008DFF84490A9F165
:101CC0000809C9F800805B1CD1F8008028FA03F8E5
:101CD000B8F1000F7FF47CAEBDE8F887000011106A
:101CE0000010024000080140000C014000100140BB
:101CF0000014014000180140001C01400800014090
:101D00000804014010B5C26821EA020302EA010496
:101D100043EA0443036110BD0AB1016101E00B0411
:101D2000036170470148006870470000FC00002014
:101D300070B504460CB9012070BD94F83D0028B977
:101D4000002084F83C00204600F046FB242084F864
:101D50003D002068006820F00100216808602068CC
:101D6000006840F40040216808602068006820F4A2
:101D700000402168086000F007FD05465C49606886
:101D8000884206D85B48854201D2012007E0002046
:101D900005E05948854201D2012000E000200128D9
:101DA00000D1C9E75548B5FBF0F62068406820F03F
:101DB0003F003043216848604D496068884201D83F
:101DC000701C07E04FF4967070434FF47A71B0FBCB
:101DD000F1F0401C2168096A21F03F0108432168A5
:101DE000086243496068884214D8681E61684900E7
:101DF000B0FBF1F0401CC0F30B00042801D204201A
:101E00003DE0681E61684900B0FBF1F0401CC0F382
:101E10000B0034E0A06838B9681E616801EB41012D
:101E2000B0FBF1F0401C0AE0681E616801EBC102E2
:101E300002EB0111B0FBF1F0401C40F48040C0F314
:101E40000B0008B901201AE0A06848B9681E616853
:101E500001EB4101B0FBF1F0401CC0F30B000CE0C2
:101E6000681E616801EBC10202EB0111B0FBF1F0E9
:101E7000401CC0F30B0040F4804040F40040216857
:101E8000C9694CF6FF72914308432168C861D4E9DF
:101E9000070108432168096821F0C001084321684F
:101EA0000860D4E9031008432168896848F2FF32CA
:101EB0009143084321688860D4E9050108432168FB
:101EC000C96821F0FF0108432168C86020680068E4
:101ED00040F001002168086000202064202084F880
:101EE0003D000020206384F83E0000BF24E700008E
:101EF000A086010080841E0000093D0040420F00C2
:101F00002DE9FE4F04460F4690469946DDE90CAB9D
:101F10000E9E00200290FFF705FF054694F83D0055
:101F2000202872D119230122CE492046009502F0C3
:101F300044FA10B10220BDE8FE8F00BF94F83C00C7
:101F4000012801D10220F6E7012084F83C0000BFFF
:101F50002068006800F0010028B92068006840F09F
:101F60000100216808602068006820F40060216892
:101F70000860222084F83D00402084F83E000020C4
:101F80002064C4F824A0A4F82AB0608D2085B64847
:101F9000E0624B46424639462046CDE9006502F0F4
:101FA000B9F808B10120C6E7208D88B900BF00202C
:101FB000019020684069019020688069019000BF0D
:101FC00000BF2068006840F40070216808604BE0A2
:101FD000208D01281AD12068006820F480602168D3
:101FE000086072B600BF002001902068406901902F
:101FF00020688069019000BF00BF2068006840F43D
:1020000000702168086062B62EE029E1208D022868
:1020100019D12068006840F400602168086072B639
:1020200000BF00200190206840690190206880690D
:10203000019000BF00BF2068006820F48060216824
:10204000086062B610E02068006840F48060216893
:10205000086000BF0020019020684069019020685E
:102060008069019000BF00BFEBE0208D03287DD880
:10207000208D012815D12A463146204602F079FAF2
:1020800008B1012057E720680069616A0870606A3A
:10209000401C6062208D401E2085608D401E608542
:1020A000CFE0208D02282CD1334600226F492046F4
:1020B000009502F082F908B101203CE772B6206871
:1020C000006840F400702168086020680069616A57
:1020D0000870606A401C6062208D401E2085608D03
:1020E000401E608562B620680069616A0870606A97
:1020F000401C6062208D401E2085608D401E6085E2
:102100009FE03346002259492046009502F055F9D8
:1021100008B101200FE72068006820F48060216882
:10212000086072B620680069616A0870606A401CC5
:102130006062208D401E2085608D401E60854C4869
:1021400000681921B0FBF1F04FF47A71B0FBF1F0A7
:10215000C0EBC00000EB8000029000BF0298401E60
:1021600002900298A8B90020206300E039E0202006
:1021700084F83D00002084F83E00206C40F02000F0
:10218000206462B600BF002084F83C0000BF01203C
:10219000D1E620684069C0F380000028DED02068C6
:1021A000006840F400702168086020680069616A76
:1021B0000870606A401C6062208D401E2085608D22
:1021C000401E608562B620680069616A0870606AB6
:1021D000401C6062208D401E2085608D401E608501
:1021E0002FE02A463146204602F0C3F908B101200B
:1021F000A1E620680069616A0870606A401C60623C
:10220000208D401E2085608D401E608520684069BD
:10221000C0F38000A8B1208D032805D12068006894
:1022200020F480602168086020680069616A087095
:10223000606A401C6062208D401E2085608D401EBB
:102240006085208D00287FF410AF202084F83D00A9
:10225000002084F83E0000BF84F83C0000BF6AE61E
:10226000022068E6020010000000FFFF04000100E9
:10227000840100202DE9FC5F04460F4690469946F4
:10228000DDE90CAB0E9EFFF74DFD054694F83D00D1
:1022900020287DD1192301224D492046009502F0C6
:1022A0008CF810B10220BDE8FC9F00BF94F83C0000
:1022B000012801D10220F6E7012084F83C0000BF8C
:1022C0002068006800F0010028B92068006840F02C
:1022D0000100216808602068006820F4006021681F
:1022E0000860212084F83D00402084F83E00002052
:1022F0002064C4F824A0A4F82AB0608D2085354855
:10230000E0624B46424639462046CDE9006501F081
:10231000B1FF08B10120C6E731E02A463146204628
:1023200002F06CF950B1206C042805D120680068D7
:1023300040F40070216808600120B4E7606A00780A
:1023400021680861606A401C6062208D401E208503
:10235000608D401E608520684069C0F3800070B1C8
:10236000208D60B1606A007821680861606A401C55
:102370006062208D401E2085608D401E6085208D0E
:102380000028CAD12A463146204601F0E3FF00E08A
:102390001CE050B1206C042805D12068006840F48E
:1023A00000702168086001207DE72068006840F423
:1023B000007021680860202084F83D00002084F827
:1023C0003E0000BF84F83C0000BF6CE702206AE7D3
:1023D000020010000000FFFF10B586B00446002088
:1023E000029003900490059015492068884225D1F9
:1023F00000BF1448806940F008001249886108460F
:10240000806900F00800019000BF00BFC02002906A
:10241000122003900320059002A90B48FFF7D2FA7F
:1024200000BF0848C06940F400100649C86108466A
:10243000C06900F40010019000BF00BF06B010BDDD
:102440000054004000100240000C014003480068A6
:10245000034909780844014908607047FC000020DE
:102460000401002010B50848006840F0100006493B
:102470000860032000F0A8F80F2000F007F800F033
:102480002BF8002010BD00000020024070B504466B
:102490000E4800784FF47A71B1FBF0F00C490968EE
:1024A000B1FBF0F5284600F0BFFD08B1012070BD7A
:1024B000102C07D200222146501E00F047F8054894
:1024C000046001E00120F2E70020F0E704010020B1
:1024D000840100200001002008B500BF1148806978
:1024E00040F001000F4988610846806900F0010052
:1024F000009000BF00BF00BF0846C06940F0805098
:10250000C8610846C06900F08050009000BF00BF5D
:1025100000BF0549486820F0E06040F00070486066
:1025200000BF08BD001002400000014001460846FF
:10253000002809DB00F01F0301229A4043099B0099
:1025400003F1E023C3F8002100BF70472DE9F05FDD
:1025500080460D461646002704F0A0F90746394686
:102560002A46334601F00700C0F1070ABAF1040F0A
:1025700002D94FF0040A01E0C0F1070AD14600F188
:10258000040ABAF1070F02D24FF0000A01E0A0F1ED
:10259000030AD4464FF0010A0AFA09FAAAF1010A1D
:1025A0000AEA020A0AFA0CFA4FF0010B0BFA0CFBCA
:1025B000ABF1010B0BEA030B4AEA0B042146404640
:1025C00004F074F9BDE8F09F00BF00F00702064B6D
:1025D00019684FF6FF031940044B0B4343EA0221ED
:1025E000014B196000BF70470CED00E00000FA05D8
:1025F00070B504460D460CB9012070BD5A480068FC
:1026000000F00700A8420ED25748006820F00700EB
:102610002843554908600846006800F00700A842B2
:1026200001D00120E9E7207800F0020002281DD146
:10263000207800F00400042805D14C48406840F49C
:10264000E0604A494860207800F00800082805D179
:102650004648406840F460504449486043484068F8
:1026600020F0F000A168084340494860207800F05D
:10267000010078B36068012806D13C48006800F486
:10268000003090B90120B8E76068022806D13748C9
:10269000006800F0007040B90120AEE733480068E0
:1026A00000F0020008B90120A7E73048406820F098
:1026B0000300616808432D494860FFF733FB064675
:1026C00009E0FFF72FFB801B41F28831884202D9D5
:1026D000032092E707E02548406800F00C0061689D
:1026E000B0EB810FEDD12048006800F00700A84250
:1026F0000ED91D48006820F0070028431A490860D9
:102700000846006800F00700A84201D0012074E7E5
:10271000207800F00400042807D11448406820F411
:10272000E060E168084311494860207800F0080043
:10273000082808D10D48406820F46050216940EA1B
:10274000C1000A49486000F03FF808494968C1F3F0
:102750000311074A515CC8400649086006480068F2
:10276000FFF794FE002048E70020024000100240DE
:10277000F68B000884010020000100200148006859
:10278000704700008401002000B5FFF7F7FF0449FF
:102790004968C1F30221034A515CC84000BD0000F2
:1027A00000100240068C000800B5FFF7E7FF04495F
:1027B0004968C1F3C221034A515CC84000BD000012
:1027C00000100240068C000870B500210022002491
:1027D00000230020134D696801F00C05F5B1042DAC
:1027E00002D0082D19D101E00F4819E00F4DC1F3B7
:1027F0008346AB5D01F4803555B10A4D6D68C5F374
:1028000040450B4E725D084D5D43B5FBF2F402E0AE
:10281000084D03FB05F4204602E000BF024800BF5C
:1028200000BF70BD0010024000127A00DA8B000871
:10283000EA8B000800093D00F8B504460CB90120F8
:10284000F8BD207800F00100002878D0F8484068F2
:1028500000F00C0004280CD0F548406800F00C0093
:10286000082811D1F248406800F48030B0F5803F6C
:102870000AD1EF48006800F4003000285FD060689B
:1028800000285CD10120DBE700BF6068B0F5803F25
:1028900006D1E748006840F48030E549086028E048
:1028A000606858B9E248006820F48030E049086068
:1028B0000846006820F4802008601AE06068B0F5DF
:1028C000A02F0BD1DA48006840F48020D849086076
:1028D0000846006840F4803008600AE0D448006888
:1028E00020F48030D24908600846006820F4802037
:1028F000086000BF606888B1FFF714FA054606E07B
:10290000FFF710FA401B642801D9032098E7C84854
:10291000006800F400300028F2D010E0FFF702FA5F
:10292000054606E0FFF7FEF9401B642801D90320A5
:1029300086E7BF48006800F400300028F2D1207814
:1029400000F00200022857D1B948406800F00C009E
:1029500050B1B748406800F00C00082818D1B448BE
:10296000406800F4803098B9B148006800F0020077
:1029700020B12069012801D0012061E7AC4800683E
:1029800020F0F800616940EAC100A949086033E01D
:102990002069E8B10120A7490860FFF7C3F905469F
:1029A00006E0FFF7BFF9401B022801D9032047E7E3
:1029B0009F48006800F002000028F2D09C480068A0
:1029C00020F0F800616940EAC1009949086013E00D
:1029D000002098490860FFF7A5F9054606E0FFF7D3
:1029E000A1F9401B022801D9032029E7904800687B
:1029F00000F002000028F2D1207800F0080008283A
:102A00002DD1A069B8B101208B490860FFF78AF980
:102A1000054606E0FFF786F9401B022801D903208E
:102A20000EE78348406A00F002000028F2D001203F
:102A300002F048FF13E000207F490860FFF772F9B9
:102A4000054606E0FFF76EF9401B022801D9032076
:102A5000F6E67748406A00F002000028F2D12078BC
:102A600000F00400042873D100277148C06900F009
:102A7000805070B900BF6E48C06940F080506C490A
:102A8000C8610846C06900F08050009000BF00BFD8
:102A900001276A48006800F48070B0B96748006890
:102AA00040F4807065490860FFF73CF9054606E090
:102AB000FFF738F9401B642801D90320C0E65F48BE
:102AC000006800F480700028F2D000BFE0680128A0
:102AD00006D15748006A40F001005549086227E0D6
:102AE000E06858B95248006A20F001005049086275
:102AF0000846006A20F00400086219E0E068052832
:102B00000BD14B48006A40F004004949086208466E
:102B1000006A40F0010008620AE04548006A20F0BF
:102B20000100434908620846006A20F00400086278
:102B300000BFE068A0B1FFF7F5F8054609E0FFF730
:102B4000F1F8401B41F28831884202D9032077E630
:102B500022E03748006A00F002000028EFD012E0BF
:102B6000FFF7E0F8054608E0FFF7DCF8401B41F20C
:102B70008831884201D9032062E62D48006A00F0BE
:102B800002000028F0D1012F05D12948C06920F0AA
:102B900080502749C86100BFE069C8B32448406835
:102BA00000F00C00082860D0E069022848D100201D
:102BB00020490866FFF7B6F8054606E0FFF7B2F8C9
:102BC000401B022801D903203AE61948006800F0AA
:102BD00000700028F2D1206AB0F5803F07D1144878
:102BE000406820F40030A168084311494860D4E9E6
:102BF000080108430E49496821F4741108430C493F
:102C0000486001200B490866FFF78CF8054607E08D
:102C10003DE0FFF787F8401B022801D903200FE6AB
:102C20000348006800F000700028F2D02FE0000098
:102C30000010024000004242800442420070004006
:102C4000002014490866FFF76DF8054606E0FFF717
:102C500069F8401B022801D90320F1E50E480068FD
:102C600000F000700028F2D111E0E069012800D1E5
:102C7000E6E50948466806F48031206A814204D1BD
:102C800006F47011606A814201D00120D8E500206D
:102C9000D6E50000000042420010024010B5044694
:102CA0000CB9012010BD606A38B96068B0F5827F48
:102CB00000D105E00021E16102E0002121616161B4
:102CC0000021A16294F8510028B9002084F8500036
:102CD000204600F043F8022084F851002068006884
:102CE00020F0400021680860A08800F482702189EB
:102CF00001F404410843A18901F400610843217CE7
:102D000001F002010843217D01F001010843218BFC
:102D100001F400710843217F01F0380108432021AC
:102D2000095D01F080010843218D01F40051084341
:102D3000216808600421A06901EA10402168486008
:102D40002068C06920F400602168C86100206065C7
:102D5000012084F851000020A4E7000010B586B0DF
:102D600004460020029003900490059019492068C1
:102D700088422DD100BF1848806940F48050164920
:102D800088610846806900F48050019000BF00BF50
:102D900000BF0846806940F00400886108468069E9
:102DA00000F00400019000BF00BFA02002900220AC
:102DB00003900320059002A90848FEF703FE402077
:102DC000029000200390049002A90448FEF7FAFD47
:102DD00006B010BD00300140001002400008014064
:102DE0002DE9FE4F04460F4690461D460C9E0120DD
:102DF0000190FEF797FF814694F851B06068029009
:102E0000AA46BBF1010F0BD00298B0F5827F04D126
:102E1000A06810B9BBF1040F02D00220BDE8FE8FFC
:102E20001FB1B8F1000F00D00DB90120F6E700BFC7
:102E300094F85000012801D10220EFE7012084F826
:102E4000500000BF94F85100042802D0052084F8F7
:102E5000510000206065C4F83880E587A5872763A6
:102E6000E586A586206460642068006800F0400064
:102E7000402805D02068006840F0400021680860C4
:102E8000E068B0F5006F52D1606810B1BAF1010F7F
:102E900009D1206B00882168C860206B801C2063EA
:102EA000E08E401EE0863BE02068806800F0020073
:102EB000022810D1E08E70B1019801280BD1206B4F
:102EC00000882168C860206B801C2063E08E401E53
:102ED000E086002001902068806800F0010068B161
:102EE000E08F58B12068C068A16B0880A06B801C7F
:102EF000A063E08F401EE08701200190FEF712FFE3
:102F0000A0EB0900B0420BD3701C48B1012084F83B
:102F1000510000BF002084F8500000BF03207DE76F
:102F2000E08E0028C0D1E08F0028BDD152E060685B
:102F300010B1BAF1010F09D1206B00782168087334
:102F4000206B401C2063E08E401EE0863CE0206841
:102F5000806800F00200022810D1E08E70B1019864
:102F600001280BD1206B007821680873206B401C6E
:102F70002063E08E401EE08600200190206880687B
:102F800000F0010068B1E08F58B12068C068A16B03
:102F90000870A06B401CA063E08F401EE0870120FA
:102FA0000190FEF7BFFEA0EB0900B04201D3701CF8
:102FB00000B94EB9012084F8510000BF002084F808
:102FC000500000BF032029E7E08E0028BFD1E08F2A
:102FD0000028BCD14A463146204602F0B9FC40B137
:102FE0002020606500BF002084F8500000BF012051
:102FF00014E7A06850B900BF002000902068C068A6
:10300000009020688068009000BF00BF012084F815
:10301000510000BF002084F8500000BF606D08B16F
:103020000120FBE60020F9E670B504462546681E3F
:10303000B0F1807F01D301200FE0681E4FF0E02146
:1030400048610F214FF0FF3003F030FC00204FF0BB
:10305000E021886107200861002070BD704770473B
:1030600030B502460B4600BF92F83C00012801D162
:10307000022030BD012082F83C0000BF022082F80F
:103080003D00106844681068816824F07004186876
:10309000044310684460144D1068A84213D0134DC7
:1030A0001068A8420FD01068B0F1804F0BD0104DBF
:1030B0001068A84207D00F4D1068A84203D00E4DEB
:1030C0001068A84205D121F08001586801431068BA
:1030D0008160012082F83D0000BF002082F83C00A2
:1030E00000BF00BFC5E70000002C014000340140D4
:1030F0000004004000080040000C004010B50446E9
:103100000CB9012010BD94F83D0028B9002084F8C6
:103110003C00204600F026F8022084F83D00211DE6
:10312000206802F00DFD012084F8460000BF84F8FD
:103130003E0001213F20015540200155412001550D
:1031400000BF00BF012084F8420043200155442005
:1031500001554520015500BF012084F83D000020A5
:10316000D0E7000038B504460D492068884215D1E3
:1031700000BF0C48806940F400600A498861084635
:10318000806900F40060009000BF00BF002211467B
:103190001920FFF7DBF91920FFF7C8F938BD000047
:1031A000002C014000100240014691F83D0001282A
:1031B00001D001207047022081F83D000868C068F6
:1031C00040F001000B68D860164B0868984213D095
:1031D000154B086898420FD00868B0F1804F0BD0AB
:1031E000124B0868984207D0114B0868984203D0E8
:1031F000104B086898420CD10868806800F00702FC
:10320000062A0CD00868006840F001000B681860BE
:1032100005E00868006840F001000B6818600020B5
:10322000C8E70000002C01400034014000040040C9
:1032300000080040000C00402DE9F04104460D4616
:10324000002700BF94F83C00012802D10220BDE80D
:10325000F081012084F83C0000BF022084F83D008A
:103260002068866826F0770626F47F462068866008
:103270002868502833D00CDC202850D004DC0028EB
:103280004BD0102851D149E0302849D040284CD1AA
:1032900039E060282DD0702807D0B0F5805F03D0CA
:1032A000B0F5005F41D10DE041E0D5E902136A6855
:1032B000206802F0ACFC2068866846F0770620683B
:1032C000866034E0D5E902136A68206802F09FFC4A
:1032D0002068806840F480402168886027E0EA68C0
:1032E0006968206802F084FD5021206802F09AFC91
:1032F0001DE0EA686968206802F08DFD60212068A1
:1033000002F090FC13E0EA686968206802F070FD42
:103310004021206802F086FC09E000BF00BF00BF2A
:103320002968206802F07EFC01E0012700BF00BF91
:10333000012084F83D0000BF002084F83C0000BF5D
:10334000384684E72DE9F04104460D4614B90120C2
:10335000BDE8F08194F83D0028B9002084F83C00D5
:10336000204600F051F8022084F83D002068806873
:1033700044F20701884321688860211D206802F01B
:10338000DFFB2068D0F80880206886692068076A1B
:10339000286840EA080840F203308643A969A86813
:1033A00040EA0120064340F60C4086434FF2F0000D
:1033B0008643E969E86840EA01200643286900017C
:1033C000296A40EA0130064327F0220769696868E4
:1033D00040EA011007432068C0F808802068866131
:1033E00020680762012084F8460084F83E0001212D
:1033F0003F200155012084F842004320015501205F
:1034000084F83D000020A3E710B586B004460020F4
:1034100002900390049005902068B0F1804F45D150
:1034200000BF4C48C06940F001004A49C8610846E5
:10343000C06900F00100019000BF00BF00BF084656
:10344000806940F0040088610846806900F004004B
:10345000019000BF00BF00BF0846806940F008002F
:1034600088610846806900F00800019000BF00BF35
:103470004FF40040029000200390049002A93648C7
:10348000FEF7A0FA0820029000200390049002A901
:103490003248FEF797FA00BF3149486820F440707F
:1034A00040F0E06040F48070486050E02D492068B2
:1034B000884224D100BF2748C06940F00800254950
:1034C000C8610846C06900F00800019000BF00BF55
:1034D00000BF0846806940F00400886108468069A2
:1034E00000F00400019000BF00BF03200290002004
:1034F0000390049002A91848FEF764FA27E01A49DD
:103500002068884223D100BF1248806940F40050EF
:10351000104988610846806900F40050019000BF9E
:1035200000BF00BF0846806940F01000886108466F
:10353000806900F01000019000BF00BFC020029021
:1035400000200390049002A90848FEF73BFA06B059
:1035500010BD00000010024000080140000C0140B6
:1035600000000140000C0040003401400010014008
:103570002DE9F04304460D4694F83E603F20075D78
:1035800094F84280432010F804906DB9012E02D1C6
:10359000B8F1010F02D00120BDE8F083022084F8C9
:1035A0003E0084F8420025E0042D0CD1012F02D109
:1035B000B9F1010F01D00120EEE702213F200155B2
:1035C0004320015516E0012E07D1012F05D1B8F196
:1035D000010F02D1B9F1010F01D00120DCE7022077
:1035E00084F83E0002213F200155022084F8420069
:1035F0004320015515B1042D18D10BE00122002103
:10360000206802F0F3FA2068C06840F002002168E8
:10361000C86022E001220421206802F0E7FA206855
:10362000C06840F004002168C86016E00122002153
:10363000206802F0DBFA01220421206802F0D6FAA9
:103640002068C06840F002002168C8602068C06837
:1036500040F004002168C86000BF00BF2068006817
:1036600040F0010021680860002095E7704770B5C0
:1036700004462068C5682068066906F00200022832
:1036800019D105F00200022815D1401F21680861F8
:10369000012020772068806900F0030018B12046DF
:1036A000FFF7E4FF05E0204600F0F0F8204600F0C8
:1036B000CFF90020207706F00400042819D105F086
:1036C0000400042815D1C043216808610220207736
:1036D0002068806900F4407018B12046FFF7C6FFEB
:1036E00005E0204600F0D2F8204600F0B1F90020B5
:1036F000207706F00800082819D105F008000828EE
:1037000015D1C04321680861042020772068C06972
:1037100000F0030018B12046FFF7A8FF05E020469F
:1037200000F0B4F8204600F093F90020207706F06E
:103730001000102819D105F01000102815D1C04331
:1037400021680861082020772068C06900F4407073
:1037500018B12046FFF78AFF05E0204600F096F8F2
:10376000204600F075F90020207706F0010048B1EE
:1037700005F0010030B16FF00100216808612046BA
:1037800000F0E2F906F08000802809D105F0800001
:10379000802805D1C043216808612046FFF75EFC00
:1037A00006F04000402809D105F04000402805D12E
:1037B000C04321680861204600F026FA06F0200088
:1037C000202809D105F02000202805D1C043216818
:1037D00008612046FFF743FC70BD000010B586B0BD
:1037E000044600200290039004900590214920682F
:1037F000884222D100BF2048806940F010001E4955
:1038000088610846806900F01000019000BF00BF89
:103810004FF44070029002200390059002A91748CF
:10382000FEF7D0F800BF1649486820F4406040F029
:10383000E06040F4406048601AE012492068884225
:1038400016D100BF0C48806940F008000A49886121
:103850000846806900F00800019000BF00BF88158D
:10386000029002200390059002A90748FEF7AAF8EB
:1038700006B010BD000400400010024000100140DE
:103880000000014000080040000C014070472DE995
:10389000F04104460D461646002700BF94F83C0050
:1038A000012802D10220BDE8F081012084F83C000B
:1038B00000BF36B1042E1BD0082E31D00C2E5ED1A5
:1038C00045E02946206802F0B7F92068806940F099
:1038D0000800216888612068806920F00400216860
:1038E000886120688069296908432168886148E007
:1038F0002946206802F0D8F92068806940F4006009
:10390000216888612068806920F48060216888616E
:1039100020688069296940EA01202168886130E0D7
:103920002946206802F0FEF92068C06940F00800CE
:103930002168C8612068C06920F004002168C8615E
:103940002068C069296908432168C86119E02946CF
:10395000206802F023FA2068C06940F40060216802
:10396000C8612068C06920F480602168C86120684F
:10397000C069296940EA01202168C86101E0012786
:1039800000BF00BF00BF002084F83C0000BF3846E5
:1039900089E710B504460CB9012010BD94F83D002C
:1039A00028B9002084F83C00204600F025F80220C9
:1039B00084F83D00211D206802F0C2F8012084F83F
:1039C000460000BF84F83E0001213F200155402001
:1039D00001554120015500BF00BF012084F842007D
:1039E00043200155442001554520015500BF0120C9
:1039F00084F83D000020D0E708B5124A01689142E2
:103A00000DD100BF1049C96941F002010E4AD161D0
:103A10001146C96901F00201009100BF11E00B4A93
:103A2000016891420DD100BF0749C96941F0040105
:103A3000054AD1611146C96901F00401009100BF36
:103A400000BF08BD00040040001002400008004014
:103A50007047000070B504460D4615B994F83E0055
:103A60000BE0042D02D13F20005D06E0082D02D1BD
:103A70004020005D01E04120005D012801D00120CF
:103A800070BD1DB9022084F83E000EE0042D03D164
:103A900002213F20015508E0082D03D102214020DA
:103AA000015502E0022141200155012229462068EA
:103AB00002F09CF81F492068884203D01E49206804
:103AC000884201D1012000E0002028B12068406C2C
:103AD00040F400402168486416492068884213D0A9
:103AE0001549206888420FD02068B0F1804F0BD074
:103AF00012492068884207D011492068884203D0C3
:103B00001049206888420CD12068806800F00706C0
:103B1000062E0CD02068006840F001002168086083
:103B200005E02068006840F001002168086000207E
:103B3000A6E70000002C01400034014000040040D2
:103B400000080040000C004070B50446254884423F
:103B500046D125480068401C234908602348006876
:103B6000401C2249086000F0ADFD2149214802F0C7
:103B70005FFC1E49086800EBD0714910A0EB4101C1
:103B800001290FD11B48006804F06CFC05462A4649
:103B90000B4619A11948FCF765FB04221749184880
:103BA00000F04EFA1149086800EBD0714910A0EB03
:103BB000410179B90E48006804F054FC05462A46D4
:103BC0000B4610A10D48FCF74DFB04220B490C4895
:103BD00000F036FA044800683C2801DB01F058FF89
:103BE00070BD0000400200209400002098000020DA
:103BF00088000020840000207825660088010020CD
:103C0000F003002079256600704770477047000078
:103C10002DE9F84F0446206805682068C6682068CA
:103C200047694FF00009CA4605F00F09B9F1000FC6
:103C30000AD105F0200038B106F0200020B120465E
:103C400002F0C0FABDE8F88FB9F1000F7BD007F0A1
:103C5000010018B906F49070002874D005F0010036
:103C600030B106F4807018B1606C40F001006064FF
:103C700005F0040030B107F0010018B1606C40F0AD
:103C80000200606405F0020030B107F0010018B1D5
:103C9000606C40F00400606405F0080048B106F074
:103CA000200010B907F0010018B1606C40F0080066
:103CB0006064606C002845D005F0200028B106F053
:103CC000200010B1204602F07DFA20684069C0F360
:103CD000801A606C00F0080010B9BAF1000F2CD007
:103CE000204602F016FA2068406900F0400000B358
:103CF00000BF00BF2168143151E8001F21F04000CF
:103D00002168143141E80002002AF3D100BFE06BC2
:103D100050B17748E16B4863E06BFDF70BFB88B16E
:103D2000E06B416B88470DE02046FFF76FFF09E02D
:103D300009E02046FFF76AFF04E02046FFF766FF30
:103D4000002060647EE7206B012877D105F0100029
:103D5000002873D006F010000028FAD000BF002021
:103D6000009020680068009020684068009000BFC4
:103D700000BF2068406900F0400000285FD0E06B81
:103D8000006840681FFA80F8B8F1000F55D0A08D88
:103D9000404552DDA4F82E80E06B8069202843D096
:103DA00000BF00BF21680C3151E8001F21F4807072
:103DB00021680C3141E80002002AF3D100BF00BFA6
:103DC00000BF2168143151E8001F21F00100216873
:103DD000143141E80002002AF3D100BF00BF00BF48
:103DE0002168143151E8001F21F04000216814318E
:103DF00041E80002002AF3D100BF202084F84200ED
:103E00000020206300BF00BF21680C3151E8001F73
:103E100021F0100021680C3141E80002002AF3D1A2
:103E200000BFE06BFDF75BFA02206063A08DE28DBE
:103E3000801A81B22046FFF7E8FE03E742E0A08D3A
:103E4000E18D401A1FFA80F8E08DD0B3B8F1000F71
:103E500037D000BF00BF21680C3151E8001F21F4AA
:103E6000907021680C3141E80002002AF3D100BFB4
:103E700000BF00BF2168143151E8001F21F001008C
:103E80002168143141E80002002AF3D100BF20204C
:103E900084F842000020206300BF00BF21680C317D
:103EA00051E8001F21F0100021680C3141E80002A8
:103EB000002AF3D100BF0220606341462046FFF78D
:103EC000A4FEBFE605F0800030B106F0800018B116
:103ED000204602F073FAB5E605F0400030B106F076
:103EE000400018B1204602F04AF9ABE600BFA9E64F
:103EF0004960000810B504460CB9012010BDA06946
:103F000000B100E000BF94F8410028B9002084F817
:103F10004000204600F02AF8242084F84100206860
:103F2000C06820F400502168C860204602F0C8F93B
:103F30002068006920F49040216808612068406989
:103F400020F02A00216848612068C06840F40050D1
:103F50002168C86000206064202084F8410084F853
:103F600042000020606300BFC8E7000010B586B0C3
:103F70000446002002900390049005902A4920688E
:103F800088424ED100BF2948C06940F4003027491B
:103F9000C8610846C06900F40030019000BF00BF4E
:103FA00000BF0846806940F00400886108468069C7
:103FB00000F00400019000BF00BF04200290022026
:103FC00003900320059002A91948FDF7FBFC082087
:103FD000029000200390049002A91548FDF7F2FC1E
:103FE000144815490860102048600021124881607B
:103FF0008021C1600021016141618161C161FDF7E2
:1040000039FC08B1FDF768F900BF0B48A0634462B2
:1040100000BF002211462620FEF798FA2620FEF760
:1040200085FA06B010BD00000044004000100240B8
:104030000008014080000240380400207047000062
:10404000F7B50446154694F84100202836D101986A
:1040500000B10DB90120FEBD01982062A584E58460
:1040600000206064212084F841001548A16B88621B
:104070001448A16BC8621448A16B08630020A16BAF
:10408000486301AE23681A1D31682B46A06BFDF70B
:1040900037FC6FF040002168086000BF00BF216856
:1040A000143151E8001F41F080002168143141E8CB
:1040B0000002002AF3D100BF0020CCE70220CAE7AB
:1040C000AD600008056100085D600008704770473A
:1040D00000BFFEE7014608684069C0F38020B0B128
:1040E0006FF480600A68506100200863202081F826
:1040F0003D00002081F83E00086C40F00400086498
:1041000000BF002081F83C0000BF01207047002064
:10411000FCE700002DE9F84304460F461546994692
:10412000DDE908862068006840F480602168086046
:104130002068006840F480702168086043460022CF
:104140004FF001112046009600F037F960B1206869
:10415000006800F48070B0F5807F02D14FF40070E9
:1041600020640320BDE8F88307F0FE0021680861A1
:10417000334642463E49204600F07EF908B1012010
:10418000F0E700BF002000902068406900902068A0
:104190008069009000BF00BF32464146204600F0D3
:1041A0002DFA50B1206C042805D12068006840F435
:1041B0000070216808600120D4E7B9F1010F03D134
:1041C000E8B22168086117E0C5F30720216808619B
:1041D00032464146204600F011FA50B1206C0428C6
:1041E00005D12068006840F4007021680860012053
:1041F000B8E7E8B22168086132464146204600F03F
:10420000FDF950B1206C042805D12068006840F405
:104210000070216808600120A4E72068006840F46D
:10422000807021680860434600224FF0011120464B
:10423000009600F0C2F858B12068006800F4807061
:10424000B0F5807F02D14FF400702064032089E72D
:10425000F8B240F001002168086133464246044943
:10426000204600F009F908B101207BE7002079E73A
:10427000020001002DE9F843044688461546994698
:10428000DDE908672068006840F4807021680860F4
:10429000334600224FF001112046009700F08DF8C0
:1042A00060B12068006800F48070B0F5807F02D1B2
:1042B0004FF4007020640320BDE8F88308F0FE008E
:1042C000216808613B4632462149204600F0D4F877
:1042D00008B10120F0E700BF00200090206840698D
:1042E000009020688069009000BF00BF3A463146C8
:1042F000204600F083F950B1206C042805D12068D5
:10430000006840F40070216808600120D4E7B9F12A
:10431000010F03D1E8B22168086117E0C5F3072057
:10432000216808613A463146204600F067F950B1ED
:10433000206C042805D12068006840F400702168D2
:1043400008600120B8E7E8B2216808610020B3E7FF
:104350000200010070B504460D46164625E02046D1
:10436000FFF7B8FE08B1012070BD681CE8B1FDF789
:10437000D9FC801BA84200D8BDB920684069C0F3B1
:10438000800090B900202063202084F83D000020A8
:1043900084F83E00206C40F02000206400BF002024
:1043A00084F83C0000BF0120DEE720684069C0F3CC
:1043B00080000028D3D00020D6E72DE9F041044644
:1043C0000D4617461E46DDF8188038E0701CA8B36D
:1043D000FDF7A8FCA0EB0800B04200D876BBC5F3FF
:1043E000074001280AD120684069A9B20840A9B253
:1043F000884201D101200BE0002009E0206880699B
:10440000A9B20840A9B2884201D1012000E00020F1
:10441000B84214D100202063202084F83D00002001
:1044200084F83E00206C40F02000206400BF002093
:1044300084F83C0000BF0120BDE8F081FFE7C5F330
:10444000074001280AD120684069A9B20840A9B2F2
:10445000884201D101200BE0002009E0206880693A
:10446000A9B20840A9B2884201D1012000E0002091
:10447000B842ABD00020DFE72DE9F04104460D46FD
:1044800016461F4658E020684069C0F38020E8B116
:104490002068006840F40070216808606FF4806054
:1044A0002168486100202063202084F83D0000201E
:1044B00084F83E00206C40F00400206400BF00201F
:1044C00084F83C0000BF0120BDE8F081701C90B36F
:1044D000FDF728FCC01BB04200D866BBC5F30740FF
:1044E00001280AD120684069A9B20840A9B28842CF
:1044F00001D101200BE0002009E020688069A9B209
:104500000840A9B2884201D1012000E0002090B902
:1045100000202063202084F83D00002084F83E0025
:10452000206C40F02000206400BF002084F83C0094
:1045300000BF0120C8E7FFE7C5F3074001280AD103
:1045400020684069A9B20840A9B2884201D101207F
:104550000BE0002009E020688069A9B20840A9B2F8
:10456000884201D1012000E0002000288BD00020EB
:10457000AAE770B504460D46164637E02068406944
:10458000C0F30010A0B16FF0100021684861002056
:104590002063202084F83D00002084F83E00206C39
:1045A000206400BF002084F83C0000BF012070BDE3
:1045B000FDF7B8FB801BA84200D8BDB92068406950
:1045C000C0F3801090B900202063202084F83D00C3
:1045D000002084F83E00206C40F02000206400BFE2
:1045E000002084F83C0000BF0120E0E7206840691B
:1045F000C0F380100028C1D00020D8E770B5044671
:104600000D46164625E02046FFF764FD08B101205F
:1046100070BD681CE8B1FDF785FB801BA84200D87F
:10462000BDB920684069C0F3C01090B90020206374
:10463000202084F83D00002084F83E00206C40F0EB
:104640002000206400BF002084F83C0000BF01204F
:10465000DEE720684069C0F3C0100028D3D00020F6
:10466000D6E7000010B5012210210248FDF754FBE7
:1046700010BD0000000C014010B510210148FDF7ED
:1046800041FB10BD000C014010B508210548FFF7A3
:10469000E1F908210448FFF7DDF90C210248FFF792
:1046A000D9F910BD18030020D002002000200449D1
:1046B000486088600860C860486108617047000011
:1046C0007C0400202DE9F04F87B000200690059073
:1046D00004900390A4490880A448A549A54AA64B84
:1046E000CDE900210290A04AA449A54800F0AAFC07
:1046F00002F012FC9D48B0F9000003F0AEFB8046CA
:104700000022A04B03F022FA06469F4A9F4B03F07B
:104710006DF9044603F038F99D490860984801880E
:104720000698081A00B296490880934801880598AF
:10473000081A00B2904908808E4801880498081A27
:1047400000B28C4908808A4801880398081A00B290
:10475000874908808F4800681E2833DC8248B0F9FA
:10476000000003F0F7FF04468B480168204603F081
:10477000A5FE8949086087480068401C8549086093
:104780000846006814281DDB084600681E2819DC4E
:104790007948B0F9000003F0DDFF04467F48016866
:1047A000204603F08BFE7D4908607248B0F9000096
:1047B00003F0D0FF04467A480168204603F07EFEED
:1047C00077490860734800681E281ADD754800683C
:1047D000B8B975497048006803F0DEFE6E4908609C
:1047E00001207049086071496C48006803F0D4FEEC
:1047F0006A4908606D496A48006803F0CDFE68495F
:1048000008606848006801287DD15A48B0F9000066
:1048100003F0A0FF054662480168284604F0EEF860
:10482000044603F07BFF00B2524908805248B0F9B9
:10483000000003F08FFF054658480168284604F041
:10484000DDF8044603F06AFF00B24B490880464891
:10485000B0F9000003F07EFF05464F480168284686
:1048600004F0CCF8044603F059FF00B23E4908803A
:104870004F495048006803F0B9FF4F4908613A4872
:10488000B0F9000003F066FF044643480168204683
:1048900004F0B4F84749086048494648006804F005
:1048A00071F808D846494348006803F06BFF02D806
:1048B0000020404908603E493E48006803F096FFEA
:1048C0000446404903F092FF3F4908603A480168B6
:1048D0003D48006803F0F2FD374908602748B0F909
:1048E0000000404203F036FF0446314903F07EFFEA
:1048F000364908601F49B1F9001049431C4AB2F912
:1049000000201B4B00E02BE0B3F9003002FB03104A
:1049100003F0A3FACDE9000102F048FF8046894682
:104920001548B0F9000003F098FA064642464B4697
:1049300003F00CF9044602F055FB824603F024F81C
:104940001D4948604868224903F050FF1A494860F1
:10495000204B01F1080248681C49096802F060FD1B
:1049600007B0BDE8F08F0000040000200C0000201C
:104970000A0000200800002006000020020000209D
:104980000000002000407540A4703D0AD74342401B
:10499000100000201C000020280000202000002023
:1049A000240000202C0000200000F84100003041CD
:1049B00011C2793D340000207C040020000020C199
:1049C000000020410AD7A33C30000020380000201E
:1049D000E12E65423C00002008B500BF0A4840694E
:1049E00040F00100084948610846406900F00100B4
:1049F000009000BF00BF002211461120FDF7A6FD68
:104A00001120FDF793FD08BD0010024000B585B0F0
:104A10000020019002900390049000BF3748806905
:104A200040F01000354988610846806900F01000A8
:104A3000009000BF00BF00BF0846806940F004003E
:104A400088610846806900F00400009000BF00BF44
:104A500000BF0846806940F0080088610846806908
:104A600000F00800009000BF00BF00BF084680694A
:104A700040F0200088610846806900F02000009026
:104A800000BF00BF00223C211D48FDF745F9002270
:104A90004FF438411B48FDF73FF9002204211A4822
:104AA000FDF73AF9012210211648FDF735F93C20AF
:104AB000019001200290002003900220049001A99F
:104AC0000F48FCF77FFF4BF6100001900120029089
:104AD000002003900220049001A90A48FCF772FF0D
:104AE00004200190012002900020039002200490F5
:104AF00001A90548FCF766FF05B000BD00100240A3
:104B000000100140000C01400014014010B50B489A
:104B10000B4908600B484860002109488160C1606A
:104B20004FF480410161002141618161C1610162F5
:104B3000FDF7FEF808B1FCF7CFFB10BD00540040B4
:104B400094010020A086010010B50E480E490860AF
:104B50004FF48270486000210B488160C1600161A0
:104B600041614FF4007181611021C1610021016236
:104B7000416281620A21C162FEF790F808B1FCF738
:104B8000ABFB10BD00300140E801002000B587B04C
:104B90000020039004900590069001900290154823
:104BA0001549086042F20F70486000211248816088
:104BB0004721C16000210161416180218161FEF7CF
:104BC0009DFA08B1FCF788FB4FF48050039003A9CD
:104BD0000948FEF731FB08B1FCF77EFB002001908D
:104BE000029001A90448FEF73BFA08B1FCF774FBF8
:104BF00007B000BD002C01404002002000B58BB082
:104C0000242102A8FBF776FB0020009001904FF0D2
:104C100080401749086000204860002114488160E6
:104C20004FF6FF71C1600021016181610320029094
:104C3000002003900120049000200590069007902A
:104C400001200890002009900A9002A90848FEF768
:104C500079FB08B1FCF740FB002000900190694609
:104C60000348FEF7FDF908B1FCF736FB0BB000BDB9
:104C70008802002000B589B00020079008901C2110
:104C80006846FBF737FB1C481C4908600120486058
:104C900000211A48816044F29F11C1600021016126
:104CA00080218161FEF775FE08B1FCF715FB00203D
:104CB0000790089007A91148FEF7D2F908B1FCF750
:104CC0000BFB6020009000200190029004900822CD
:104CD00069460A48FEF7DBFD08B1FCF7FDFA0C2235
:104CE00069460648FEF7D3FD08B1FCF7F5FA03481C
:104CF000FEF774FD09B000BD00040040D0020020A2
:104D000000B589B00020079008901C216846FBF789
:104D1000F1FA184818490860012048600021164837
:104D2000816044F29F11C160002101618021816195
:104D3000FEF72FFE08B1FCF7CFFA0020079008908D
:104D400007A90D48FEF78CF908B1FCF7C5FA6020F9
:104D500000900020019002900490082269460648C5
:104D6000FEF795FD08B1FCF7B7FA0348FEF736FDEC
:104D700009B000BD000800401803002000B58BB04A
:104D8000242102A8FBF7B6FA0020009001901848F1
:104D900018490860002048600021164881604FF6DD
:104DA000FF71C16000210161816103200290002038
:104DB00003900120049000200590069007900120A8
:104DC0000890002009900A9002A90A48FEF7BAFA52
:104DD00008B1FCF781FA002000900190694605486F
:104DE000FEF73EF908B1FCF777FA0BB000BD000002
:104DF000000C00406003002000B58BB0242102A805
:104E0000FBF778FA002000900190184818490860D4
:104E1000002048600021164881604FF6FF71C16094
:104E20000021016141618161032002900020039013
:104E30000120049000200590069007900120089022
:104E4000002009900A9002A90948FEF77BFA08B1F0
:104E5000FCF742FA00200090019069460448FEF7F2
:104E6000FFF808B1FCF738FA0BB000BD0034014080
:104E7000A803002010B50B480B4908604FF41650EA
:104E80004860002108488160C16001610C214161D6
:104E900000218161C161FFF72DF808B1FCF71CFA10
:104EA00010BD000000440040F003002000BFFEE7FA
:104EB00010B5044644F2A010844203DD404284420F
:104EC00000DA0024002C0EDD012208210D48FCF739
:104ED00023FF00224FF400610B48FCF71DFF0B4835
:104EE000006804640DE0002208210648FCF714FF66
:104EF0000122D1020448FCF70FFF60420349096810
:104F0000086410BD00100140000C0140D0020020D8
:104F100010B5044644F2A010844203DD40428442AE
:104F200000DA0024002C0DDD002204210D48FCF7DE
:104F3000F3FE012204210C48FCF7EEFE0B4800684A
:104F4000C4630DE0012204210648FCF7E5FE0022BF
:104F500004210548FCF7E0FE604204490968C86383
:104F600010BD000000140140001001401803002093
:104F700010B5044644F2A010844203DD404284424E
:104F800000DA0024002C0EDD00224FF400410E4810
:104F9000FCF7C2FE012211030B48FCF7BDFE0B48D3
:104FA0000068C4630EE00122D1030748FCF7B4FE99
:104FB00000224FF480510448FCF7AEFE60420349E2
:104FC0000968C86310BD0000000C0140D002002039
:104FD00070B506460C46154642F6E060864200DD96
:104FE00006461048864200DA064642F6E0608442F1
:104FF00000DD04460B48844200DA044642F6E060D5
:10500000854200DD05460748854200DA0546304600
:10501000FFF74EFF6842FFF77BFF2046FFF7A8FF30
:1050200070BD000020D1FFFF70B506460C46154646
:105030003046FFF73DFF6842FFF76AFF2046FFF763
:1050400097FF70BD2DE9F04F89B004460D46164616
:105050001F4642F210700E2105AA0123CDE900215E
:1050600002903B22D0216448FCF74AFF9DF81510BE
:105070009DF8140001EB002000B238809DF8171055
:105080009DF8160001EB002001B2129801809DF8F6
:1050900019109DF8180001EB002001B2139801804F
:1050A0009DF81B109DF81A0001EB002001B2149826
:1050B00001809DF81D109DF81C0001EB002000B23E
:1050C00020809DF81F109DF81E0001EB002000B20B
:1050D00028809DF821109DF8200001EB002000B2EF
:1050E000308046490868002103F04CFB3DD243491B
:1050F0000868434903F050FA019003F00FFB4FF4A6
:10510000B4714843029003F025FB03903B480168CB
:10511000039803F0D3F93B49049003F03DFA83462A
:1051200003F0FCFA4FF4B47100FB01FA504603F0AF
:1051300011FB804631490868314903F02DFA04908B
:1051400003F0ECFA4FF4B47100FB01FB584603F096
:1051500001FB824629480168504603F0AFF98146B9
:10516000414603F0ABF92549C8602449086800218D
:1051700003F008FC3CD221490868234903F00CFAEB
:10518000019003F0CBFA4FF4B4714843029003F05E
:10519000E1FA834619480168584603F024FC824628
:1051A0001A4903F0F9F9814603F0B8FA4FF4B471E3
:1051B0004843039003F0CEFA80461049086812492C
:1051C00003F0EAF9834603F0A9FA4FF4B47100FB47
:1051D00001FA504603F0BEFA814608480168484685
:1051E00003F001FC4146049003F008FC0349C86049
:1051F00009B0BDE8F08F0000940100207C0400207D
:105200000000B4C3000034C30000B44300003443C2
:105210001FB5002003900220039042F2107001217C
:1052200003AA0B46CDE9002102903722D021304855
:10523000FDF720F83220FCF7B1FB0020039042F28A
:105240001070012103AA0B46CDE9002102906A22C9
:10525000D0212748FDF70EF83220FCF79FFB0020F5
:10526000039042F21070012103AA0B46CDE9002100
:1052700002906B22D0211E48FCF7FCFF3220FCF785
:105280008DFB0620039042F21070012103AA0B4609
:10529000CDE9002102901A22D0211548FCF7EAFF3F
:1052A0003220FCF77BFB1820039042F210700121A2
:1052B00003AA0B46CDE9002102901B22D0210C4805
:1052C000FCF7D8FF3220FCF769FB0820039042F27C
:1052D0001070012103AA0B46CDE9002102901C2287
:1052E000D0210348FCF7C6FF3220FCF757FB1FBD57
:1052F0009401002000BFFEE71CB510A103C9CDE951
:10530000000105226946302000F0A8F80522694610
:10531000102000F047F8002406E01DF80400A5283E
:1053200000D003E0601CC4B2052CF6DB00BF052CE6
:1053300001D001201CBD0020FCE70000A5A5A5A50B
:10534000A500000010B5002210211448FCF7E4FC71
:105350000F21202000F0A8F80121212000F0A4F85E
:105360000121222000F0A0F82821252000F09CF83F
:105370000F21262000F098F82021312000F094F829
:10538000052207492A2000F069F80122102103486C
:10539000FCF7C2FC0120FCF701FB10BD001001402E
:1053A000F18B00082DE9F04105460E461746002214
:1053B00020210D48FCF7B0FC29460C4800F056FBB4
:1053C0008046002406E0FF21084800F04FFB3055DE
:1053D000601CC4B2BC42F6DB012220210248FCF76B
:1053E0009BFC4046BDE8F08100100140E801002030
:1053F00070B50446002220210948FCF78DFC2146A7
:10540000084800F033FBFF21064800F02FFB05465B
:10541000012220210248FCF77FFC284670BD0000D5
:1054200000100140E801002070B504460720FFF796
:10543000DFFF05462946272000F036F805F040003A
:1054400050B1202221466120FFF7ACFFFF21E2206E
:1054500000F02AF8002070BD0120FCE72DE9F041A2
:1054600005460C461646002220210D48FCF754FC48
:1054700029460C4800F0FAFA8046002706E014F8A6
:10548000011B084800F0F2FA781CC7B2B742F6DBFD
:10549000012220210248FCF73FFC4046BDE8F08194
:1054A00000100140E801002070B504460D460022BE
:1054B00020210948FCF730FC2146084800F0D6FAC4
:1054C00006462946054800F0D1FA0122202102486B
:1054D000FCF722FC304670BD00100140E8010020BE
:1054E0004FF4FF60094908804880002003E06621EE
:1054F000074A1154401C0A28F9DD142003E000215A
:10550000034A1154401C2028F9DD70474A05002049
:10551000280500202DE9FF5F00F026F985488088E6
:1055200040F29471884209DD8248808840F2C67159
:10553000884203DA4FF4F5607E4988807D48C08850
:10554000B0F5E16F09DD7B48C08840F244718842C4
:1055500003DA4FF4E6607749C8807648808840F2E5
:105560009471884209DD7348808840F2C671884290
:1055700003DA4FF4F5606F4988806E48C088B0F553
:10558000E16F09DD6B48C08840F24471884203DA5C
:105590004FF4E6606749C88066488088A0F5F560EA
:1055A0005A2148434FF4016190FBF1F062490860D1
:1055B0006048C088A0F5E6605A21484340F688015B
:1055C00090FBF1F05D4908600846006802F045FC78
:1055D00006460F465848006802F03FFC80463246B7
:1055E0003B4601F00FFE04460022554B02F060FCE2
:1055F000544A554BCDE9000102F0A8FA8246002238
:10560000524B02F045FECDE9020102F0BDF95049CE
:10561000086050494E48006803F0B4F801D20124F4
:1056200000E000244C494A48006803F0ABF901D27D
:10563000012000E00020044034B14849444800689B
:1056400002F03CFF4249086045494148006803F0C8
:1056500099F905D33F493E48006803F093F802D218
:1056600000203B49086033488088A0F5F56014218C
:1056700090FBF1F02F498988A1F5F5614843142189
:1056800090FBF1F12B48C088A0F5E660142290FB56
:10569000F2F22848C088A0F5E660142390FBF3F0EE
:1056A00002FB00104000032190FBF1F02D4908603F
:1056B00008460068C82802DA0020254908601D480D
:1056C0000089012807D14FF47A631A461946204809
:1056D000006800F0B5FB17480089022805D11C4876
:1056E00001682048006800F0BBFF124800890328C9
:1056F00013D11C480068C82808DD42F6E06214484F
:10570000016842F2107002F077F806E042F6E062BB
:105710000F480168002002F06FF80648008904284D
:1057200006D100220A4801680E48006802F064F8B9
:10573000BDE8FF9F4A050020A8000020AC00002023
:1057400000806640112D4454FB21094000805640E2
:10575000B0000020000034C3000087C30000B44341
:1057600000003443C400002010B53048FFF75CFE51
:105770002E48807F06281DD100202C4981F820006A
:1057800000BF12E0411C294A515C294A11541146BC
:10579000097801EB81018900264A11802449497862
:1057A00001EB810189005180401C0528EADD0220BF
:1057B000204948811D48807F072836D11E4908604E
:1057C00000201A4981F8200000BF12E0411C174A4E
:1057D000515C174A11541146897801EB8101890007
:1057E000144A91801249C97801EB81018900D18066
:1057F000401C0528EADD01200E4948810B48007F46
:10580000012800D108810948007F022801D10949F7
:1058100008810648007F032801D106490881034812
:10582000007F042801D10349088110BD280500200C
:105830006C0100204A050020740100207047000020
:105840002DE9FF5F0446019D029E039F19480460F5
:1058500001681948006802F031FE174908601748CE
:1058600001681448006803F0C9F88246394602F01E
:10587000BDFF804610480168304602F0B7FF8246FF
:105880000C480168284602F0B1FF8346514602F0F9
:1058900015FE8146414602F011FE0949086005489F
:1058A0000068064908600648006802F037FF04B047
:1058B000BDE8F09F5C010020640100206801002029
:1058C0006001002008B508490968C9084FF47A72D8
:1058D000B1FBF2F14143009100BF00BF00994A1EA5
:1058E00000920029F9D108BD840100202DE9F04182
:1058F00004460D46164600202860306020600D48A2
:1059000000F01EF84742384602F024FF28600A489B
:1059100000F016F84742384602F01CFF3060074896
:1059200000F00EF84742384602F014FF2060BDE850
:10593000F081000060030020A803002088020020FE
:1059400001460A68526A10B200220B685A62704718
:10595000F8B504460E46154633460122022120467C
:10596000009500F017F828B1606D40F020006065E8
:105970000320F8BD3346002280212046009500F028
:1059800009F828B1606D40F0200060650320F0E761
:105990000020EEE72DE9F84F04460D4690461E46DE
:1059A000DDF82890FCF7BEF9A0EB0900371AFCF7E8
:1059B000B9F982462C480068C0F3CB307843009098
:1059C00045E0701C002842D0FCF7ACF9A0EB0A00BF
:1059D000B84200D2A7BB2068406820F0E0002168F0
:1059E00048606068B0F5827F0DD1A068B0F5004FC7
:1059F00003D0A068B0F5806F05D12068006820F062
:105A0000400021680860A06AB0F5005F0DD100BFBA
:105A10002068006820F40050216808602068006851
:105A200040F400502168086000BF012084F8510054
:105A300000BF002084F8500000BF0320BDE8F88FAD
:105A4000FFE7009800B900270098401E00902068EA
:105A500080682840A84201D1012000E00020404594
:105A6000AFD10020EAE70000840100203EB50546E2
:105A70000C460194FF20012302AA01A900902846A8
:105A8000FDF7AEF908B1FF2002909DF808003EBD79
:105A900010B5FFF769FE0948008901280BD00748B7
:105AA0000089022807D005480089032803D003484D
:105AB0000089042801D1FFF72DFD10BD4A05002003
:105AC000704710B5FCF7C2FC10BD00B58FB028219F
:105AD00005A8FAF70FFC14216846FAF70BFC022020
